:100000000A128A11FC2F00308A000408840A820731
:10001000003420342034493462347234613468341A
:1000200069346D346C346134623473342034203478
:100030002034003420342A342A342A3457346534A6
:100040006C3463346F346D3465342A342A342A3482
:06005000203420340034CE
:100E5E00F100831203130710710886000A128A111B
:100E6E0053270800F100831203130714710886003C
:100E7E000A128A115327080001300A128A112F27ED
:100E8E000A128A110A30F300BC30F200F20B4D2F19
:100E9E00F30B4D2F00000800831203138714A630A6
:100EAE00F000F00B582F0000831203138710A630AA
:100EBE00F000F00B602F00000800F200803072028C
:100ECE00031C6D2FA9307202031C752FC0307202E5
:100EDE00031C0800E93072020318080072080A1297
:100EEE008A112F270800F300730884000A128A1152
:100EFE0003200A128A1100380319080073088400AF
:100F0E000A128A1103200A128A110A128A1139272B
:100F1E000A128A110130F2007208F3077B2F831632
:100F2E00031387100710860183120313871007100F
:100F3E0086012130F5007630F400F40BA42FF50B6A
:100F4E00A42F000038300A128A112F270A128A1194
:100F5E000F300A128A112F270A128A1106300A122E
:100F6E008A112F270A128A110A128A1143270800A2
:100F7E000A128A1196270A128A110A128A11432717
:100F8E000A128A110230F8004530F700A930F60037
:100F9E00F60BCF2FF70BCF2FF80BCF2FD62F80308E
:100FAE000A128A1164270A128A1112300A128A1141
:100FBE007A270A128A11C0300A128A1164270A127D
:100FCE008A1101300A128A117A270A128A110D30FB
:100FDE00F800AF30F700C130F600F60BF42FF70B28
:100FEE00F42FF80BF42F0000C42F83010A128A117C
:020FFE00BF2F03
:02400E007AFD39
:00000001FF
